{
  "contractName": "Records",
  "abi": [
    {
      "inputs": [],
      "payable": false,
      "stateMutability": "nonpayable",
      "type": "constructor"
    },
    {
      "constant": false,
      "inputs": [
        {
          "internalType": "string",
          "name": "account",
          "type": "string"
        },
        {
          "internalType": "string",
          "name": "CID",
          "type": "string"
        }
      ],
      "name": "set_heart_records",
      "outputs": [],
      "payable": false,
      "stateMutability": "nonpayable",
      "type": "function"
    },
    {
      "constant": true,
      "inputs": [
        {
          "internalType": "string",
          "name": "account",
          "type": "string"
        }
      ],
      "name": "get_heart_records",
      "outputs": [
        {
          "internalType": "string",
          "name": "",
          "type": "string"
        }
      ],
      "payable": false,
      "stateMutability": "view",
      "type": "function"
    },
    {
      "constant": false,
      "inputs": [
        {
          "internalType": "string",
          "name": "account",
          "type": "string"
        },
        {
          "internalType": "string",
          "name": "CID",
          "type": "string"
        }
      ],
      "name": "set_report_records",
      "outputs": [],
      "payable": false,
      "stateMutability": "nonpayable",
      "type": "function"
    },
    {
      "constant": true,
      "inputs": [
        {
          "internalType": "string",
          "name": "account",
          "type": "string"
        }
      ],
      "name": "get_report_records",
      "outputs": [
        {
          "internalType": "string",
          "name": "",
          "type": "string"
        }
      ],
      "payable": false,
      "stateMutability": "view",
      "type": "function"
    },
    {
      "constant": false,
      "inputs": [
        {
          "internalType": "string",
          "name": "account",
          "type": "string"
        },
        {
          "internalType": "string",
          "name": "CID",
          "type": "string"
        }
      ],
      "name": "set_patient_records",
      "outputs": [],
      "payable": false,
      "stateMutability": "nonpayable",
      "type": "function"
    },
    {
      "constant": true,
      "inputs": [
        {
          "internalType": "string",
          "name": "account",
          "type": "string"
        }
      ],
      "name": "get_patient_records",
      "outputs": [
        {
          "internalType": "string",
          "name": "",
          "type": "string"
        }
      ],
      "payable": false,
      "stateMutability": "view",
      "type": "function"
    },
    {
      "constant": true,
      "inputs": [],
      "name": "get_Patient_Count",
      "outputs": [
        {
          "internalType": "uint256",
          "name": "",
          "type": "uint256"
        }
      ],
      "payable": false,
      "stateMutability": "view",
      "type": "function"
    },
    {
      "constant": false,
      "inputs": [
        {
          "internalType": "string",
          "name": "account",
          "type": "string"
        },
        {
          "internalType": "string",
          "name": "CID",
          "type": "string"
        }
      ],
      "name": "set_prescription_records",
      "outputs": [],
      "payable": false,
      "stateMutability": "nonpayable",
      "type": "function"
    },
    {
      "constant": true,
      "inputs": [
        {
          "internalType": "string",
          "name": "account",
          "type": "string"
        }
      ],
      "name": "get_prescription_records",
      "outputs": [
        {
          "internalType": "string",
          "name": "",
          "type": "string"
        }
      ],
      "payable": false,
      "stateMutability": "view",
      "type": "function"
    }
  ],
  "bytecode": "0x608060405234801561001057600080fd5b5033600460006101000a81548173ffffffffffffffffffffffffffffffffffffffff021916908373ffffffffffffffffffffffffffffffffffffffff160217905550611360806100616000396000f3fe608060405234801561001057600080fd5b50600436106100935760003560e01c80634d9e8d48116100665780634d9e8d481461048e5780638f79d8df146105e0578063a4048e6814610714578063c1cad0f814610866578063df8b8aa11461099a57610093565b8063096725d1146100985780631c8c9115146101ea578063351702791461020857806338c3c6da1461035a575b600080fd5b6101e8600480360360408110156100ae57600080fd5b81019080803590602001906401000000008111156100cb57600080fd5b8201836020820111156100dd57600080fd5b803590602001918460018302840111640100000000831117156100ff57600080fd5b91908080601f016020809104026020016040519081016040528093929190818152602001838380828437600081840152601f19601f8201169050808301925050505050505091929192908035906020019064010000000081111561016257600080fd5b82018360208201111561017457600080fd5b8035906020019184600183028401116401000000008311171561019657600080fd5b91908080601f016020809104026020016040519081016040528093929190818152602001838380828437600081840152601f19601f820116905080830192505050505050509192919290505050610ace565b005b6101f2610baa565b6040518082815260200191505060405180910390f35b6103586004803603604081101561021e57600080fd5b810190808035906020019064010000000081111561023b57600080fd5b82018360208201111561024d57600080fd5b8035906020019184600183028401116401000000008311171561026f57600080fd5b91908080601f016020809104026020016040519081016040528093929190818152602001838380828437600081840152601f19601f820116905080830192505050505050509192919290803590602001906401000000008111156102d257600080fd5b8201836020820111156102e457600080fd5b8035906020019184600183028401116401000000008311171561030657600080fd5b91908080601f016020809104026020016040519081016040528093929190818152602001838380828437600081840152601f19601f820116905080830192505050505050509192919290505050610bb4565b005b6104136004803603602081101561037057600080fd5b810190808035906020019064010000000081111561038d57600080fd5b82018360208201111561039f57600080fd5b803590602001918460018302840111640100000000831117156103c157600080fd5b91908080601f016020809104026020016040519081016040528093929190818152602001838380828437600081840152601f19601f820116905080830192505050505050509192919290505050610c90565b6040518080602001828103825283818151815260200191508051906020019080838360005b83811015610453578082015181840152602081019050610438565b50505050905090810190601f1680156104805780820380516001836020036101000a031916815260200191505b509250505060405180910390f35b6105de600480360360408110156104a457600080fd5b81019080803590602001906401000000008111156104c157600080fd5b8201836020820111156104d357600080fd5b803590602001918460018302840111640100000000831117156104f557600080fd5b91908080601f016020809104026020016040519081016040528093929190818152602001838380828437600081840152601f19601f8201169050808301925050505050505091929192908035906020019064010000000081111561055857600080fd5b82018360208201111561056a57600080fd5b8035906020019184600183028401116401000000008311171561058c57600080fd5b91908080601f016020809104026020016040519081016040528093929190818152602001838380828437600081840152601f19601f820116905080830192505050505050509192919290505050610d9b565b005b610699600480360360208110156105f657600080fd5b810190808035906020019064010000000081111561061357600080fd5b82018360208201111561062557600080fd5b8035906020019184600183028401116401000000008311171561064757600080fd5b91908080601f016020809104026020016040519081016040528093929190818152602001838380828437600081840152601f19601f820116905080830192505050505050509192919290505050610e77565b6040518080602001828103825283818151815260200191508051906020019080838360005b838110156106d95780820151818401526020810190506106be565b50505050905090810190601f1680156107065780820380516001836020036101000a031916815260200191505b509250505060405180910390f35b6108646004803603604081101561072a57600080fd5b810190808035906020019064010000000081111561074757600080fd5b82018360208201111561075957600080fd5b8035906020019184600183028401116401000000008311171561077b57600080fd5b91908080601f016020809104026020016040519081016040528093929190818152602001838380828437600081840152601f19601f820116905080830192505050505050509192919290803590602001906401000000008111156107de57600080fd5b8201836020820111156107f057600080fd5b8035906020019184600183028401116401000000008311171561081257600080fd5b91908080601f016020809104026020016040519081016040528093929190818152602001838380828437600081840152601f19601f820116905080830192505050505050509192919290505050610f82565b005b61091f6004803603602081101561087c57600080fd5b810190808035906020019064010000000081111561089957600080fd5b8201836020820111156108ab57600080fd5b803590602001918460018302840111640100000000831117156108cd57600080fd5b91908080601f016020809104026020016040519081016040528093929190818152602001838380828437600081840152601f19601f820116905080830192505050505050509192919290505050611070565b6040518080602001828103825283818151815260200191508051906020019080838360005b8381101561095f578082015181840152602081019050610944565b50505050905090810190601f16801561098c5780820380516001836020036101000a031916815260200191505b509250505060405180910390f35b610a53600480360360208110156109b057600080fd5b81019080803590602001906401000000008111156109cd57600080fd5b8201836020820111156109df57600080fd5b80359060200191846001830284011164010000000083111715610a0157600080fd5b91908080601f016020809104026020016040519081016040528093929190818152602001838380828437600081840152601f19601f82011690508083019250505050505050919291929050505061117b565b6040518080602001828103825283818151815260200191508051906020019080838360005b83811015610a93578082015181840152602081019050610a78565b50505050905090810190601f168015610ac05780820380516001836020036101000a031916815260200191505b509250505060405180910390f35b600460009054906101000a900473ffffffffffffffffffffffffffffffffffffffff1673ffffffffffffffffffffffffffffffffffffffff163373ffffffffffffffffffffffffffffffffffffffff1614610b2857600080fd5b806001836040518082805190602001908083835b60208310610b5f5780518252602082019150602081019050602083039250610b3c565b6001836020036101000a03801982511681845116808217855250505050505090500191505090815260200160405180910390209080519060200190610ba5929190611286565b505050565b6000600554905090565b600460009054906101000a900473ffffffffffffffffffffffffffffffffffffffff1673ffffffffffffffffffffffffffffffffffffffff163373ffffffffffffffffffffffffffffffffffffffff1614610c0e57600080fd5b806003836040518082805190602001908083835b60208310610c455780518252602082019150602081019050602083039250610c22565b6001836020036101000a03801982511681845116808217855250505050505090500191505090815260200160405180910390209080519060200190610c8b929190611286565b505050565b60606000826040518082805190602001908083835b60208310610cc85780518252602082019150602081019050602083039250610ca5565b6001836020036101000a03801982511681845116808217855250505050505090500191505090815260200160405180910390208054600181600116156101000203166002900480601f016020809104026020016040519081016040528092919081815260200182805460018160011615610100020316600290048015610d8f5780601f10610d6457610100808354040283529160200191610d8f565b820191906000526020600020905b815481529060010190602001808311610d7257829003601f168201915b50505050509050919050565b600460009054906101000a900473ffffffffffffffffffffffffffffffffffffffff1673ffffffffffffffffffffffffffffffffffffffff163373ffffffffffffffffffffffffffffffffffffffff1614610df557600080fd5b806000836040518082805190602001908083835b60208310610e2c5780518252602082019150602081019050602083039250610e09565b6001836020036101000a03801982511681845116808217855250505050505090500191505090815260200160405180910390209080519060200190610e72929190611286565b505050565b60606003826040518082805190602001908083835b60208310610eaf5780518252602082019150602081019050602083039250610e8c565b6001836020036101000a03801982511681845116808217855250505050505090500191505090815260200160405180910390208054600181600116156101000203166002900480601f016020809104026020016040519081016040528092919081815260200182805460018160011615610100020316600290048015610f765780601f10610f4b57610100808354040283529160200191610f76565b820191906000526020600020905b815481529060010190602001808311610f5957829003601f168201915b50505050509050919050565b600460009054906101000a900473ffffffffffffffffffffffffffffffffffffffff1673ffffffffffffffffffffffffffffffffffffffff163373ffffffffffffffffffffffffffffffffffffffff1614610fdc57600080fd5b806002836040518082805190602001908083835b602083106110135780518252602082019150602081019050602083039250610ff0565b6001836020036101000a03801982511681845116808217855250505050505090500191505090815260200160405180910390209080519060200190611059929190611286565b506005600081548092919060010191905055505050565b60606001826040518082805190602001908083835b602083106110a85780518252602082019150602081019050602083039250611085565b6001836020036101000a03801982511681845116808217855250505050505090500191505090815260200160405180910390208054600181600116156101000203166002900480601f01602080910402602001604051908101604052809291908181526020018280546001816001161561010002031660029004801561116f5780601f106111445761010080835404028352916020019161116f565b820191906000526020600020905b81548152906001019060200180831161115257829003601f168201915b50505050509050919050565b60606002826040518082805190602001908083835b602083106111b35780518252602082019150602081019050602083039250611190565b6001836020036101000a03801982511681845116808217855250505050505090500191505090815260200160405180910390208054600181600116156101000203166002900480601f01602080910402602001604051908101604052809291908181526020018280546001816001161561010002031660029004801561127a5780601f1061124f5761010080835404028352916020019161127a565b820191906000526020600020905b81548152906001019060200180831161125d57829003601f168201915b50505050509050919050565b828054600181600116156101000203166002900490600052602060002090601f016020900481019282601f106112c757805160ff19168380011785556112f5565b828001600101855582156112f5579182015b828111156112f45782518255916020019190600101906112d9565b5b5090506113029190611306565b5090565b61132891905b8082111561132457600081600090555060010161130c565b5090565b9056fea265627a7a7231582032fd33f2ab732e2b8fe14d37a55e60386be40b14b6d5beb27e5575d1ab35946764736f6c63430005100032",
  "source": "// SPDX-License-Identifier: MIT\r\npragma solidity >=0.4.22 <0.8.0;\r\n\r\ncontract Records{\r\n    mapping (string => string) private heart_records;\r\n    mapping (string => string) private report_records;\r\n    mapping (string => string) private patient_records;\r\n     mapping (string => string) private prescription_records;\r\n    address private doctor;\r\n    uint private Patient_Count;\r\n\r\n    constructor () public{\r\n        doctor = msg.sender;\r\n    }\r\n\r\n     modifier onlyDoctor(){\r\n        require(msg.sender == doctor);\r\n            _;\r\n        }\r\n\r\n    function set_heart_records(string memory account,string memory CID) onlyDoctor public {\r\n            heart_records[account] = CID;\r\n    }\r\n    function get_heart_records(string memory account) public view returns(string memory){\r\n            return heart_records[account];\r\n    }\r\n\r\n    function set_report_records(string memory account,string memory CID) onlyDoctor public {\r\n            report_records[account] = CID;\r\n    }\r\n    function get_report_records(string memory account) public view returns(string memory){\r\n            return report_records[account];\r\n    }\r\n\r\n    function set_patient_records(string memory account,string memory CID) onlyDoctor public {\r\n            patient_records[account] = CID;\r\n            Patient_Count ++;\r\n    }\r\n    function get_patient_records(string memory account) public view returns(string memory){\r\n            return patient_records[account];\r\n    }\r\n    function get_Patient_Count() public view returns(uint){return Patient_Count; }\r\n\r\n    function set_prescription_records(string memory account,string memory CID) onlyDoctor public {\r\n             prescription_records[account] = CID;\r\n            \r\n    }\r\n    function get_prescription_records(string memory account) public view returns(string memory){\r\n            return  prescription_records[account];\r\n    }\r\n\r\n}\r\n\r\n\r\n",
  "sourcePath": "/home/safiullah/Downloads/Virtual-Doctor/project/contracts/Records.sol",
  "compiler": {
    "name": "solc",
    "version": "0.5.16+commit.9c3226ce.Emscripten.clang"
  },
  "schemaVersion": "3.3.2",
  "updatedAt": "2020-12-22T08:49:27.635Z",
  "networkType": "ethereum",
  "devdoc": {
    "methods": {}
  },
  "userdoc": {
    "methods": {}
  }
}